{
  "contractName": "Medical",
  "abi": [
    {
      "constant": true,
      "inputs": [
        {
          "name": "",
          "type": "address"
        }
      ],
      "name": "patients",
      "outputs": [
        {
          "name": "",
          "type": "bool"
        }
      ],
      "payable": false,
      "stateMutability": "view",
      "type": "function"
    },
    {
      "constant": true,
      "inputs": [
        {
          "name": "",
          "type": "uint256"
        }
      ],
      "name": "records",
      "outputs": [
        {
          "name": "admissionNo",
          "type": "string"
        },
        {
          "name": "name",
          "type": "string"
        },
        {
          "name": "hospital",
          "type": "string"
        },
        {
          "name": "doctor",
          "type": "string"
        },
        {
          "name": "prescription",
          "type": "string"
        }
      ],
      "payable": false,
      "stateMutability": "view",
      "type": "function"
    },
    {
      "constant": true,
      "inputs": [],
      "name": "owner",
      "outputs": [
        {
          "name": "",
          "type": "address"
        }
      ],
      "payable": false,
      "stateMutability": "view",
      "type": "function"
    },
    {
      "anonymous": false,
      "inputs": [],
      "name": "CreatedPatientEvent",
      "type": "event"
    },
    {
      "constant": true,
      "inputs": [],
      "name": "getNumPatients",
      "outputs": [
        {
          "name": "",
          "type": "uint256"
        }
      ],
      "payable": false,
      "stateMutability": "view",
      "type": "function"
    },
    {
      "constant": false,
      "inputs": [
        {
          "name": "_admissionNo",
          "type": "string"
        },
        {
          "name": "_name",
          "type": "string"
        },
        {
          "name": "_hospital",
          "type": "string"
        },
        {
          "name": "_doctor",
          "type": "string"
        },
        {
          "name": "_prescription",
          "type": "string"
        }
      ],
      "name": "addPatient",
      "outputs": [
        {
          "name": "",
          "type": "bool"
        }
      ],
      "payable": false,
      "stateMutability": "nonpayable",
      "type": "function"
    },
    {
      "constant": true,
      "inputs": [
        {
          "name": "recordInt",
          "type": "uint256"
        }
      ],
      "name": "getPatient",
      "outputs": [
        {
          "name": "",
          "type": "uint256"
        },
        {
          "name": "",
          "type": "string"
        },
        {
          "name": "",
          "type": "string"
        },
        {
          "name": "",
          "type": "string"
        },
        {
          "name": "",
          "type": "string"
        },
        {
          "name": "",
          "type": "string"
        },
        {
          "name": "",
          "type": "address[]"
        }
      ],
      "payable": false,
      "stateMutability": "view",
      "type": "function"
    }
  ],
  "bytecode": "0x608060405233600260006101000a81548173ffffffffffffffffffffffffffffffffffffffff021916908373ffffffffffffffffffffffffffffffffffffffff16021790555034801561005157600080fd5b5061146b806100616000396000f300608060405260043610610078576000357c0100000000000000000000000000000000000000000000000000000000900463ffffffff1680630869cfbc1461007d57806334461067146100d857806356fa82171461032e5780637d3a6796146104c75780638da5cb5b1461076c578063d196b8ed146107c3575b600080fd5b34801561008957600080fd5b506100be600480360381019080803573ffffffffffffffffffffffffffffffffffffffff1690602001909291905050506107ee565b604051808215151515815260200191505060405180910390f35b3480156100e457600080fd5b506101036004803603810190808035906020019092919050505061080e565b60405180806020018060200180602001806020018060200186810386528b818151815260200191508051906020019080838360005b83811015610153578082015181840152602081019050610138565b50505050905090810190601f1680156101805780820380516001836020036101000a031916815260200191505b5086810385528a818151815260200191508051906020019080838360005b838110156101b957808201518184015260208101905061019e565b50505050905090810190601f1680156101e65780820380516001836020036101000a031916815260200191505b50868103845289818151815260200191508051906020019080838360005b8381101561021f578082015181840152602081019050610204565b50505050905090810190601f16801561024c5780820380516001836020036101000a031916815260200191505b50868103835288818151815260200191508051906020019080838360005b8381101561028557808201518184015260208101905061026a565b50505050905090810190601f1680156102b25780820380516001836020036101000a031916815260200191505b50868103825287818151815260200191508051906020019080838360005b838110156102eb5780820151818401526020810190506102d0565b50505050905090810190601f1680156103185780820380516001836020036101000a031916815260200191505b509a505050505050505050505060405180910390f35b34801561033a57600080fd5b506104ad600480360381019080803590602001908201803590602001908080601f0160208091040260200160405190810160405280939291908181526020018383808284378201915050505050509192919290803590602001908201803590602001908080601f0160208091040260200160405190810160405280939291908181526020018383808284378201915050505050509192919290803590602001908201803590602001908080601f0160208091040260200160405190810160405280939291908181526020018383808284378201915050505050509192919290803590602001908201803590602001908080601f0160208091040260200160405190810160405280939291908181526020018383808284378201915050505050509192919290803590602001908201803590602001908080601f0160208091040260200160405190810160405280939291908181526020018383808284378201915050505050509192919290505050610b4b565b604051808215151515815260200191505060405180910390f35b3480156104d357600080fd5b506104f260048036038101908080359060200190929190505050610e5e565b6040518088815260200180602001806020018060200180602001806020018060200187810387528d818151815260200191508051906020019080838360005b8381101561054c578082015181840152602081019050610531565b50505050905090810190601f1680156105795780820380516001836020036101000a031916815260200191505b5087810386528c818151815260200191508051906020019080838360005b838110156105b2578082015181840152602081019050610597565b50505050905090810190601f1680156105df5780820380516001836020036101000a031916815260200191505b5087810385528b818151815260200191508051906020019080838360005b838110156106185780820151818401526020810190506105fd565b50505050905090810190601f1680156106455780820380516001836020036101000a031916815260200191505b5087810384528a818151815260200191508051906020019080838360005b8381101561067e578082015181840152602081019050610663565b50505050905090810190601f1680156106ab5780820380516001836020036101000a031916815260200191505b50878103835289818151815260200191508051906020019080838360005b838110156106e45780820151818401526020810190506106c9565b50505050905090810190601f1680156107115780820380516001836020036101000a031916815260200191505b50878103825288818151815260200191508051906020019060200280838360005b8381101561074d578082015181840152602081019050610732565b505050509050019d505050505050505050505050505060405180910390f35b34801561077857600080fd5b50610781611264565b604051808273ffffffffffffffffffffffffffffffffffffffff1673ffffffffffffffffffffffffffffffffffffffff16815260200191505060405180910390f35b3480156107cf57600080fd5b506107d861128a565b6040518082815260200191505060405180910390f35b60016020528060005260406000206000915054906101000a900460ff1681565b60008181548110151561081d57fe5b9060005260206000209060060201600091509050806000018054600181600116156101000203166002900480601f0160208091040260200160405190810160405280929190818152602001828054600181600116156101000203166002900480156108c95780601f1061089e576101008083540402835291602001916108c9565b820191906000526020600020905b8154815290600101906020018083116108ac57829003601f168201915b505050505090806001018054600181600116156101000203166002900480601f0160208091040260200160405190810160405280929190818152602001828054600181600116156101000203166002900480156109675780601f1061093c57610100808354040283529160200191610967565b820191906000526020600020905b81548152906001019060200180831161094a57829003601f168201915b505050505090806002018054600181600116156101000203166002900480601f016020809104026020016040519081016040528092919081815260200182805460018160011615610100020316600290048015610a055780601f106109da57610100808354040283529160200191610a05565b820191906000526020600020905b8154815290600101906020018083116109e857829003601f168201915b505050505090806003018054600181600116156101000203166002900480601f016020809104026020016040519081016040528092919081815260200182805460018160011615610100020316600290048015610aa35780601f10610a7857610100808354040283529160200191610aa3565b820191906000526020600020905b815481529060010190602001808311610a8657829003601f168201915b505050505090806004018054600181600116156101000203166002900480601f016020809104026020016040519081016040528092919081815260200182805460018160011615610100020316600290048015610b415780601f10610b1657610100808354040283529160200191610b41565b820191906000526020600020905b815481529060010190602001808311610b2457829003601f168201915b5050505050905085565b6000610b55611296565b60008751111515610bce576040517f08c379a000000000000000000000000000000000000000000000000000000000815260040180806020018281038252601c8152602001807f41646d697373696f6e204e756d6265722069732072657175697265640000000081525060200191505060405180910390fd5b60008651111515610c47576040517f08c379a00000000000000000000000000000000000000000000000000000000081526004018080602001828103825260188152602001807f50617469656e74204e616d65206973207265717569726564000000000000000081525060200191505060405180910390fd5b6009875111151515610cc1576040517f08c379a00000000000000000000000000000000000000000000000000000000081526004018080602001828103825260158152602001807f41646d697373696f6e204c656e6774682069732039000000000000000000000081525060200191505060405180910390fd5b7f6f32500025918c94a04c1946df9cddf4638e096a856c3d8f0d23f1dd15d7680b60405160405180910390a1868160000181905250858160200181905250848160400181905250838160600181905250828160800181905250600081908060018154018082558091505090600182039060005260206000209060060201600090919290919091506000820151816000019080519060200190610d649291906112cd565b506020820151816001019080519060200190610d819291906112cd565b506040820151816002019080519060200190610d9e9291906112cd565b506060820151816003019080519060200190610dbb9291906112cd565b506080820151816004019080519060200190610dd89291906112cd565b5060a0820151816005019080519060200190610df592919061134d565b5050505060018060003373ffffffffffffffffffffffffffffffffffffffff1673ffffffffffffffffffffffffffffffffffffffff16815260200190815260200160002060006101000a81548160ff021916908315150217905550600191505095945050505050565b6000606080606080606080600080600080549050111561125757600089815481101515610e8757fe5b9060005260206000209060060201905088816000018260010183600201846003018560040186600501858054600181600116156101000203166002900480601f016020809104026020016040519081016040528092919081815260200182805460018160011615610100020316600290048015610f455780601f10610f1a57610100808354040283529160200191610f45565b820191906000526020600020905b815481529060010190602001808311610f2857829003601f168201915b50505050509550848054600181600116156101000203166002900480601f016020809104026020016040519081016040528092919081815260200182805460018160011615610100020316600290048015610fe15780601f10610fb657610100808354040283529160200191610fe1565b820191906000526020600020905b815481529060010190602001808311610fc457829003601f168201915b50505050509450838054600181600116156101000203166002900480601f01602080910402602001604051908101604052809291908181526020018280546001816001161561010002031660029004801561107d5780601f106110525761010080835404028352916020019161107d565b820191906000526020600020905b81548152906001019060200180831161106057829003601f168201915b50505050509350828054600181600116156101000203166002900480601f0160208091040260200160405190810160405280929190818152602001828054600181600116156101000203166002900480156111195780601f106110ee57610100808354040283529160200191611119565b820191906000526020600020905b8154815290600101906020018083116110fc57829003601f168201915b50505050509250818054600181600116156101000203166002900480601f0160208091040260200160405190810160405280929190818152602001828054600181600116156101000203166002900480156111b55780601f1061118a576101008083540402835291602001916111b5565b820191906000526020600020905b81548152906001019060200180831161119857829003601f168201915b505050505091508080548060200260200160405190810160405280929190818152602001828054801561123d57602002820191906000526020600020905b8160009054906101000a900473ffffffffffffffffffffffffffffffffffffffff1673ffffffffffffffffffffffffffffffffffffffff16815260200190600101908083116111f3575b505050505090509750975097509750975097509750611258565b5b50919395979092949650565b600260009054906101000a900473ffffffffffffffffffffffffffffffffffffffff1681565b60008080549050905090565b60c0604051908101604052806060815260200160608152602001606081526020016060815260200160608152602001606081525090565b828054600181600116156101000203166002900490600052602060002090601f016020900481019282601f1061130e57805160ff191683800117855561133c565b8280016001018555821561133c579182015b8281111561133b578251825591602001919060010190611320565b5b50905061134991906113d7565b5090565b8280548282559060005260206000209081019282156113c6579160200282015b828111156113c55782518260006101000a81548173ffffffffffffffffffffffffffffffffffffffff021916908373ffffffffffffffffffffffffffffffffffffffff1602179055509160200191906001019061136d565b5b5090506113d391906113fc565b5090565b6113f991905b808211156113f55760008160009055506001016113dd565b5090565b90565b61143c91905b8082111561143857600081816101000a81549073ffffffffffffffffffffffffffffffffffffffff021916905550600101611402565b5090565b905600a165627a7a72305820c07d6993724c5f47e5108b280f3331360dc105d7f41a21b797374335d5beb04d0029",
  "source": "pragma solidity ^0.4.24;\r\n \r\n/** @title Medical Record. */\r\ncontract Medical {\r\n/** @dev Adds a new patient and gets the patient record.\r\n    * @param admissionNo The admission number of the patient.\r\n    * @param name The name of the patient.\r\n    * @param hospital The name of the hospital.\r\n    * @param doctor The name of the patients doctor.\r\n    * @param prescription The name of the patients prescription.\r\n    * @return recordInt Returns the patients record number.\r\n*/\r\n \r\n    /** @dev Custom defined types for the patient record. */\r\n    struct Record {\r\n        string admissionNo;\r\n        string name;\r\n        string hospital;\r\n        string doctor;\r\n        string prescription;\r\n        address[] patientsAddress;\r\n    }\r\n \r\n    /** @dev Records array */\r\n    Record[] public records;\r\n    \r\n    mapping(address => bool) public patients;\r\n    \r\n    address public owner = msg.sender;\r\n    event CreatedPatientEvent();\r\n    \r\n    /** @dev Restrict read access to contract’s state by other contracts */\r\n    modifier onlyBy(address _account)\r\n    {\r\n        require(\r\n            msg.sender == _account,\r\n            \"Sender not authorized.\"\r\n        );\r\n        _;\r\n    }\r\n        \r\n    /** @dev Returns the number of patients. */\r\n    function getNumPatients() public view \r\n        //onlyBy(owner)\r\n        returns (uint) {\r\n            return records.length;\r\n    }\r\n    \r\n    /** @dev Adds a new patient record. */\r\n     function addPatient(string _admissionNo, string _name, string _hospital, string _doctor, string _prescription)  public \r\n     //onlyBy(owner)  //restrict access\r\n     returns (bool) {\r\n        require(bytes(_admissionNo).length > 0, \"Admission Number is required\"); //check the admission number is entered\r\n        require(bytes(_name).length > 0, \"Patient Name is required\"); //check the patient name is entered\r\n        require(bytes(_admissionNo).length <= 9, \"Admission Length is 9\"); //check the admission number length is 9 characters\r\n        \r\n        Record memory record;\r\n        emit CreatedPatientEvent();  //update the event\r\n        \r\n        record.admissionNo = _admissionNo;\r\n        record.name = _name;\r\n        record.hospital = _hospital;\r\n        record.doctor = _doctor;\r\n        record.prescription = _prescription;\r\n        \r\n        records.push(record); //add the patient record\r\n        \r\n        patients[msg.sender] = true; //update to true\r\n        return true;\r\n    }\r\n \r\n    /** @dev Gets the patient record based on the record id. */\r\n    function getPatient(uint recordInt) public view \r\n    //onlyBy(owner)  //restrict access\r\n    returns (uint, string, string, string, string, string, address[]) {\r\n        if (records.length > 0) {  //check the record length is greater than 0\r\n            Record storage p = records[recordInt]; // Get the record\r\n            return (recordInt, p.admissionNo, p.name, p.hospital, p.doctor, p.prescription, p.patientsAddress);  //return the record set based on the id\r\n        }\r\n    }\r\n}",
  "sourcePath": "C:\\Users\\mvjli\\medical_records\\contracts\\Medical.sol",
  "compiler": {
    "name": "solc",
    "version": "0.4.24+commit.e67f0147.Emscripten.clang"
  },
  "schemaVersion": "2.0.1",
  "updatedAt": "2018-10-04T05:15:37.436Z"
}